{
  "_format": "hh-sol-artifact-1",
  "contractName": "Main",
  "sourceName": "contracts/Main.sol",
  "abi": [
    {
      "inputs": [
        {
          "internalType": "uint256",
          "name": "",
          "type": "uint256"
        }
      ],
      "name": "Votings",
      "outputs": [
        {
          "internalType": "address",
          "name": "",
          "type": "address"
        }
      ],
      "stateMutability": "view",
      "type": "function"
    },
    {
      "inputs": [
        {
          "internalType": "string",
          "name": "_name",
          "type": "string"
        },
        {
          "internalType": "string",
          "name": "_description",
          "type": "string"
        },
        {
          "internalType": "uint256",
          "name": "_start",
          "type": "uint256"
        },
        {
          "internalType": "uint256",
          "name": "_end",
          "type": "uint256"
        },
        {
          "internalType": "string[]",
          "name": "_candidates",
          "type": "string[]"
        }
      ],
      "name": "createVoting",
      "outputs": [],
      "stateMutability": "nonpayable",
      "type": "function"
    },
    {
      "inputs": [],
      "name": "votingId",
      "outputs": [
        {
          "internalType": "uint256",
          "name": "",
          "type": "uint256"
        }
      ],
      "stateMutability": "view",
      "type": "function"
    }
  ],
  "bytecode": "0x60806040526000805534801561001457600080fd5b50610ffe806100246000396000f3fe60806040523480156200001157600080fd5b5060043610620000465760003560e01c80631c6a31e0146200004b57806355fcc60b146200006d578063a32cf9901462000086575b600080fd5b62000055620000ac565b604051620000649190620003f5565b60405180910390f35b620000846200007e366004620001d6565b620000b2565b005b6200009d62000097366004620002df565b6200013b565b60405162000064919062000346565b60005481565b60008585858585604051620000c79062000156565b620000d79594939291906200035a565b604051809103906000f080158015620000f4573d6000803e3d6000fd5b5060008054815260016020526040812080546001600160a01b0319166001600160a01b0384161790558054919250806200012e836200042b565b9190505550505050505050565b6001602052600090815260409020546001600160a01b031681565b610b5f806200046a83390190565b600082601f83011262000175578081fd5b813567ffffffffffffffff81111562000192576200019262000453565b620001a7601f8201601f1916602001620003fe565b818152846020838601011115620001bc578283fd5b816020850160208301379081016020019190915292915050565b600080600080600060a08688031215620001ee578081fd5b853567ffffffffffffffff8082111562000206578283fd5b6200021489838a0162000164565b96506020915081880135818111156200022b578384fd5b620002398a828b0162000164565b96505060408801359450606088013593506080880135818111156200025c578384fd5b8801601f81018a136200026d578384fd5b80358281111562000282576200028262000453565b620002918485830201620003fe565b8181528481019350828501865b83811015620002cb57620002b88e88843588010162000164565b865294860194908601906001016200029e565b505080955050505050509295509295909350565b600060208284031215620002f1578081fd5b5035919050565b60008151808452815b818110156200031f5760208185018101518683018201520162000301565b81811115620003315782602083870101525b50601f01601f19169290920160200192915050565b6001600160a01b0391909116815260200190565b600060a082526200036f60a0830188620002f8565b602083820381850152620003848289620002f8565b91508660408501528560608501528382036080850152818551808452828401915082838202850101838801865b83811015620003e357601f19878403018552620003d0838351620002f8565b94860194925090850190600101620003b1565b50909c9b505050505050505050505050565b90815260200190565b60405181810167ffffffffffffffff8111828210171562000423576200042362000453565b604052919050565b60006000198214156200044c57634e487b7160e01b81526011600452602481fd5b5060010190565b634e487b7160e01b600052604160045260246000fdfe608060405260006006553480156200001657600080fd5b5060405162000b5f38038062000b5f8339810160408190526200003991620002ee565b428311620000645760405162461bcd60e51b81526004016200005b90620003f6565b60405180910390fd5b828211620000865760405162461bcd60e51b81526004016200005b906200042d565b6001815111620000aa5760405162461bcd60e51b81526004016200005b906200048a565b8451620000bf906000906020880190620001b7565b508351620000d5906001906020870190620001b7565b506002839055600382905560005b81518110156200013b57620001268282815181106200011257634e487b7160e01b600052603260045260246000fd5b60200260200101516200014760201b60201c565b8062000132816200053b565b915050620000e3565b50505050505062000579565b6040805160608101825260065480825260208083018581526000848601819052928352600482529390912082518155925180519293926200018f9260018501920190620001b7565b506040919091015160029091015560068054906000620001af836200053b565b919050555050565b828054620001c590620004fe565b90600052602060002090601f016020900481019282620001e9576000855562000234565b82601f106200020457805160ff191683800117855562000234565b8280016001018555821562000234579182015b828111156200023457825182559160200191906001019062000217565b506200024292915062000246565b5090565b5b8082111562000242576000815560010162000247565b600082601f8301126200026e578081fd5b81516001600160401b038111156200028a576200028a62000563565b6020620002a0601f8301601f19168201620004d2565b8281528582848701011115620002b4578384fd5b835b83811015620002d3578581018301518282018401528201620002b6565b83811115620002e457848385840101525b5095945050505050565b600080600080600060a0868803121562000306578081fd5b85516001600160401b03808211156200031d578283fd5b6200032b89838a016200025d565b965060209150818801518181111562000342578384fd5b620003508a828b016200025d565b965050604088015194506060880151935060808801518181111562000373578384fd5b8801601f81018a1362000384578384fd5b80518281111562000399576200039962000563565b620003a88485830201620004d2565b8181528481019350828501865b83811015620003e257620003cf8e8884518801016200025d565b86529486019490860190600101620003b5565b505080955050505050509295509295909350565b60208082526016908201527f496e76616c6964207374617274696e6720646174652e00000000000000000000604082015260600190565b6020808252603f908201527f496e76616c696420656e64696e6720646174652e2049742073686f756c64206260408201527f65206c61746572207468616e20746865207374617274696e6720646174652e00606082015260800190565b60208082526028908201527f54686572652073686f756c64206265206174206c656173742074776f2063616e6040820152673234b230ba32b99760c11b606082015260800190565b6040518181016001600160401b0381118282101715620004f657620004f662000563565b604052919050565b6002810460018216806200051357607f821691505b602082108114156200053557634e487b7160e01b600052602260045260246000fd5b50919050565b60006000198214156200055c57634e487b7160e01b81526011600452602481fd5b5060010190565b634e487b7160e01b600052604160045260246000fd5b6105d680620005896000396000f3fe608060405234801561001057600080fd5b50600436106100885760003560e01c80637284e4161161005b5780637284e416146100f7578063a3ec138d146100ff578063be9a65551461011f578063efbe1c1c1461012757610088565b80630121b93f1461008d57806306fdde03146100a25780632d35a8a2146100c05780633477ee2e146100d5575b600080fd5b6100a061009b3660046103af565b61012f565b005b6100aa610214565b6040516100b7919061041d565b60405180910390f35b6100c86102a2565b6040516100b7919061050c565b6100e86100e33660046103af565b6102a8565b6040516100b793929190610515565b6100aa610353565b61011261010d366004610381565b610360565b6040516100b79190610412565b6100c8610375565b6100c861037b565b60025442101561015a5760405162461bcd60e51b815260040161015190610430565b60405180910390fd5b600354421061017b5760405162461bcd60e51b8152600401610151906104d5565b3360009081526005602052604090205460ff16156101ab5760405162461bcd60e51b815260040161015190610467565b600654811080156101ba575060015b6101d65760405162461bcd60e51b81526004016101519061049e565b336000908152600560209081526040808320805460ff191660011790558383526004909152812060020180549161020c83610579565b919050555050565b600080546102219061053e565b80601f016020809104026020016040519081016040528092919081815260200182805461024d9061053e565b801561029a5780601f1061026f5761010080835404028352916020019161029a565b820191906000526020600020905b81548152906001019060200180831161027d57829003601f168201915b505050505081565b60065481565b600460205260009081526040902080546001820180549192916102ca9061053e565b80601f01602080910402602001604051908101604052809291908181526020018280546102f69061053e565b80156103435780601f1061031857610100808354040283529160200191610343565b820191906000526020600020905b81548152906001019060200180831161032657829003601f168201915b5050505050908060020154905083565b600180546102219061053e565b60056020526000908152604090205460ff1681565b60025481565b60035481565b600060208284031215610392578081fd5b81356001600160a01b03811681146103a8578182fd5b9392505050565b6000602082840312156103c0578081fd5b5035919050565b60008151808452815b818110156103ec576020818501810151868301820152016103d0565b818111156103fd5782602083870101525b50601f01601f19169290920160200192915050565b901515815260200190565b6000602082526103a860208301846103c7565b6020808252601a908201527f566f74696e6720686173206e6f74207374617274656420796574000000000000604082015260600190565b60208082526018908201527f566f7465722068617320616c726561647920766f746564210000000000000000604082015260600190565b6020808252601a908201527f496e76616c69642063616e64696461746520746f20766f746521000000000000604082015260600190565b60208082526018908201527f566f74696e672068617320616c726561647920656e6465640000000000000000604082015260600190565b90815260200190565b60008482526060602083015261052e60608301856103c7565b9050826040830152949350505050565b60028104600182168061055257607f821691505b6020821081141561057357634e487b7160e01b600052602260045260246000fd5b50919050565b600060001982141561059957634e487b7160e01b81526011600452602481fd5b506001019056fea2646970667358221220861fce150f535d0521ff9cc8978bb13b04ae4efed0d7cc795c03c7e44fe0262d64736f6c63430008000033a26469706673582212204f27f239209848aab73aaae3e4e7efe31ab854af95665c0761a70e8e0801faeb64736f6c63430008000033",
  "linkReferences": {},
  "deployedLinkReferences": {}
}